:03000000020A39B8
:0C0A3900787FE4F6D8FD75811E02097379
:040A450041444400E4
:10099D008B1B8A1C891DAB1BAA1CA91D120A0EFFDD
:1009AD0060151209C57401251DF51DE4351CF51CD6
:0809BD007F051209F580DF221D
:100937007F02120A277F051209F57F28120A277FEF
:10094700051209F57F06120A277F051209F57F0EA2
:10095700120A277F051209F57F01120A277F051260
:0C09670009F57F80120A277F050209F5C0
:100A27008F1BE51B1209EBC291E51BC41209EBC230
:020A370091220A
:1009C5008F1EE51E54F0F590D290D2917F01120949
:1009D500F5C291E51EC454F0F590D290D2917F01F5
:0609E5001209F5C2912287
:0A09EB0054F0F590C290D2917F0203
:1009F500E4FEEEC39F5011E4FDFC0DBD00010CBCEF
:080A050003F8BDE8F50E80EADC
:010A0D0022C6
:10080000D2B0D2B1D2B2D2B3D2B4D2B5D2B6D2B7BC
:10081000C2B020B40E7F011209F530B4FD7508375F
:100820007F372220B50E7F011209F530B5FD75091D
:10083000387F382220B60E7F011209F530B6FD75DB
:100840000B397F392220B70E7F011209F530B7FD31
:10085000750C2F7F2F22D2B0C2B120B40E7F0112AF
:1008600009F530B4FD750D347F342220B50E7F01BB
:100870001209F530B5FD750F357F352220B60E7F94
:10088000011209F530B6FD7510367F362220B70EFD
:100890007F011209F530B7FD75112A7F2A22D2B0E7
:1008A000D2B1C2B220B40E7F011209F530B4FD7589
:1008B00012317F312220B50E7F011209F530B5FDCE
:1008C0007513327F322220B60E7F011209F530B641
:1008D000FD7514337F332220B70E7F011209F530E6
:1008E000B7FD75152D7F2D22D2B0D2B1D2B2C2B3D1
:1008F00020B40E7F011209F530B4FD7517437F4314
:100900002220B50E7F011209F530B5FD7519307F33
:10091000302220B60E7F011209F530B6FD75183D64
:100920007F3D2220B70E7F011209F530B7FD751605
:070930002B7F2B227F002228
:100973001209371208008F1AEF60F87F80120A27D6
:10098300AF1A1209C57FC0120A27E51AB42BE47BFC
:0A099300FF7A0A794512099D80D908
:100A0E00BB010689828A83E0225002E722BBFE02E6
:090A1E00E32289828A83E4932219
:00000001FF
